{
  "contractName": "Farechain2",
  "abi": [
    {
      "inputs": [],
      "stateMutability": "nonpayable",
      "type": "constructor"
    },
    {
      "anonymous": false,
      "inputs": [
        {
          "indexed": true,
          "internalType": "address",
          "name": "buyerAddress",
          "type": "address"
        },
        {
          "indexed": true,
          "internalType": "address",
          "name": "organisationAddress",
          "type": "address"
        },
        {
          "indexed": true,
          "internalType": "uint16",
          "name": "quantity",
          "type": "uint16"
        }
      ],
      "name": "Purchased",
      "type": "event"
    },
    {
      "anonymous": false,
      "inputs": [
        {
          "indexed": true,
          "internalType": "address",
          "name": "from",
          "type": "address"
        },
        {
          "indexed": true,
          "internalType": "address",
          "name": "to",
          "type": "address"
        }
      ],
      "name": "ownershipTransferred",
      "type": "event"
    },
    {
      "inputs": [],
      "name": "owner",
      "outputs": [
        {
          "internalType": "address",
          "name": "",
          "type": "address"
        }
      ],
      "stateMutability": "view",
      "type": "function",
      "constant": true
    },
    {
      "inputs": [],
      "name": "totalOrganisations",
      "outputs": [
        {
          "internalType": "uint32",
          "name": "",
          "type": "uint32"
        }
      ],
      "stateMutability": "view",
      "type": "function",
      "constant": true
    },
    {
      "inputs": [
        {
          "internalType": "address",
          "name": "to",
          "type": "address"
        }
      ],
      "name": "transferOwnership",
      "outputs": [],
      "stateMutability": "nonpayable",
      "type": "function"
    },
    {
      "stateMutability": "payable",
      "type": "receive",
      "payable": true
    },
    {
      "inputs": [],
      "name": "balance",
      "outputs": [
        {
          "internalType": "uint256",
          "name": "",
          "type": "uint256"
        }
      ],
      "stateMutability": "view",
      "type": "function",
      "constant": true
    },
    {
      "inputs": [
        {
          "internalType": "uint256",
          "name": "amount",
          "type": "uint256"
        }
      ],
      "name": "withdraw",
      "outputs": [],
      "stateMutability": "nonpayable",
      "type": "function"
    },
    {
      "inputs": [
        {
          "internalType": "address",
          "name": "organisationAddress",
          "type": "address"
        },
        {
          "internalType": "string",
          "name": "organisationName",
          "type": "string"
        },
        {
          "internalType": "string",
          "name": "organisationPhone",
          "type": "string"
        },
        {
          "internalType": "string",
          "name": "organisationLocation",
          "type": "string"
        },
        {
          "internalType": "uint256",
          "name": "bagPrice",
          "type": "uint256"
        },
        {
          "internalType": "uint256",
          "name": "bagValue",
          "type": "uint256"
        },
        {
          "internalType": "string",
          "name": "bagDescription",
          "type": "string"
        }
      ],
      "name": "addOrganisation",
      "outputs": [],
      "stateMutability": "nonpayable",
      "type": "function"
    },
    {
      "inputs": [
        {
          "internalType": "address",
          "name": "organisationAddress",
          "type": "address"
        }
      ],
      "name": "removeOrganisation",
      "outputs": [],
      "stateMutability": "nonpayable",
      "type": "function"
    },
    {
      "inputs": [],
      "name": "getOrganisations",
      "outputs": [
        {
          "components": [
            {
              "internalType": "address",
              "name": "organisationAddress",
              "type": "address"
            },
            {
              "internalType": "string",
              "name": "organisationName",
              "type": "string"
            },
            {
              "internalType": "string",
              "name": "organisationPhone",
              "type": "string"
            },
            {
              "internalType": "string",
              "name": "organisationLocation",
              "type": "string"
            },
            {
              "internalType": "uint256",
              "name": "bagPrice",
              "type": "uint256"
            },
            {
              "internalType": "uint256",
              "name": "bagValue",
              "type": "uint256"
            },
            {
              "internalType": "string",
              "name": "bagDescription",
              "type": "string"
            },
            {
              "internalType": "uint16",
              "name": "totalBags",
              "type": "uint16"
            },
            {
              "internalType": "bool",
              "name": "valid",
              "type": "bool"
            }
          ],
          "internalType": "struct Farechain2.Organisation[]",
          "name": "",
          "type": "tuple[]"
        }
      ],
      "stateMutability": "view",
      "type": "function",
      "constant": true
    },
    {
      "inputs": [
        {
          "internalType": "uint256",
          "name": "newPrice",
          "type": "uint256"
        }
      ],
      "name": "updateBagPrice",
      "outputs": [],
      "stateMutability": "nonpayable",
      "type": "function"
    },
    {
      "inputs": [
        {
          "internalType": "uint256",
          "name": "newValue",
          "type": "uint256"
        }
      ],
      "name": "updateBagValue",
      "outputs": [],
      "stateMutability": "nonpayable",
      "type": "function"
    },
    {
      "inputs": [
        {
          "internalType": "string",
          "name": "newDescription",
          "type": "string"
        }
      ],
      "name": "updateBagDescription",
      "outputs": [],
      "stateMutability": "nonpayable",
      "type": "function"
    },
    {
      "inputs": [
        {
          "internalType": "uint16",
          "name": "quantity",
          "type": "uint16"
        }
      ],
      "name": "addBags",
      "outputs": [],
      "stateMutability": "nonpayable",
      "type": "function"
    },
    {
      "inputs": [
        {
          "internalType": "address",
          "name": "organisationAddress",
          "type": "address"
        },
        {
          "internalType": "uint16",
          "name": "quantity",
          "type": "uint16"
        }
      ],
      "name": "buy",
      "outputs": [],
      "stateMutability": "payable",
      "type": "function",
      "payable": true
    }
  ],
  "bytecode": "0x60806040523480156200001157600080fd5b50336000806101000a81548173ffffffffffffffffffffffffffffffffffffffff021916908373ffffffffffffffffffffffffffffffffffffffff16021790555060008054906101000a900473ffffffffffffffffffffffffffffffffffffffff1673ffffffffffffffffffffffffffffffffffffffff16600073ffffffffffffffffffffffffffffffffffffffff167f7699c77f2404f9b6bbd003861bb4af8ae70b205e19e73d7ec7fe4590db59a6b760405160405180910390a36002604051806101200160405280600073ffffffffffffffffffffffffffffffffffffffff1681526020016040518060200160405280600081525081526020016040518060200160405280600081525081526020016040518060200160405280600081525081526020016000815260200160008152602001604051806020016040528060008152508152602001600061ffff16815260200160001515815250908060018154018082558091505060019003906000526020600020906008020160009091909190915060008201518160000160006101000a81548173ffffffffffffffffffffffffffffffffffffffff021916908373ffffffffffffffffffffffffffffffffffffffff1602179055506020820151816001019080519060200190620001fa929190620002b8565b50604082015181600201908051906020019062000219929190620002b8565b50606082015181600301908051906020019062000238929190620002b8565b506080820151816004015560a0820151816005015560c08201518160060190805190602001906200026b929190620002b8565b5060e08201518160070160006101000a81548161ffff021916908361ffff1602179055506101008201518160070160026101000a81548160ff0219169083151502179055505050620003cd565b828054620002c69062000368565b90600052602060002090601f016020900481019282620002ea576000855562000336565b82601f106200030557805160ff191683800117855562000336565b8280016001018555821562000336579182015b828111156200033557825182559160200191906001019062000318565b5b50905062000345919062000349565b5090565b5b80821115620003645760008160009055506001016200034a565b5090565b600060028204905060018216806200038157607f821691505b602082108114156200039857620003976200039e565b5b50919050565b7f4e487b7100000000000000000000000000000000000000000000000000000000600052602260045260246000fd5b612b2980620003dd6000396000f3fe6080604052600436106100c65760003560e01c80638da5cb5b1161007f578063d1f8a20811610059578063d1f8a20814610249578063d2efcd8514610272578063eaffd4291461028e578063f2fde38b146102b9576100cd565b80638da5cb5b146101c8578063b69ef8a8146101f3578063c17509861461021e576100cd565b80632e1a7d4d146100d2578063510e7ff1146100fb5780637962e1db1461012457806382adfcd61461014d57806384d09b15146101765780638c1a6cd11461019f576100cd565b366100cd57005b600080fd5b3480156100de57600080fd5b506100f960048036038101906100f49190611f21565b6102e2565b005b34801561010757600080fd5b50610122600480360381019061011d9190611ef8565b6103fd565b005b34801561013057600080fd5b5061014b60048036038101906101469190611d7d565b61062c565b005b34801561015957600080fd5b50610174600480360381019061016f9190611eb7565b6109cf565b005b34801561018257600080fd5b5061019d60048036038101906101989190611f21565b610b94565b005b3480156101ab57600080fd5b506101c660048036038101906101c19190611f21565b610d49565b005b3480156101d457600080fd5b506101dd610efe565b6040516101ea919061228a565b60405180910390f35b3480156101ff57600080fd5b50610208610f27565b60405161021591906123e7565b60405180910390f35b34801561022a57600080fd5b50610233610f2f565b6040516102409190612402565b60405180910390f35b34801561025557600080fd5b50610270600480360381019061026b9190611d54565b610f45565b005b61028c60048036038101906102879190611e7b565b61125b565b005b34801561029a57600080fd5b506102a36116c2565b6040516102b091906122a5565b60405180910390f35b3480156102c557600080fd5b506102e060048036038101906102db9190611d54565b611a0f565b005b60008054906101000a900473ffffffffffffffffffffffffffffffffffffffff1673ffffffffffffffffffffffffffffffffffffffff163373ffffffffffffffffffffffffffffffffffffffff1614610370576040517f08c379a0000000000000000000000000000000000000000000000000000000008152600401610367906123c7565b60405180910390fd5b478111156103b3576040517f08c379a00000000000000000000000000000000000000000000000000000000081526004016103aa90612367565b60405180910390fd5b3373ffffffffffffffffffffffffffffffffffffffff166108fc829081150290604051600060405180830381858888f193505050501580156103f9573d6000803e3d6000fd5b5050565b6000600160003373ffffffffffffffffffffffffffffffffffffffff1673ffffffffffffffffffffffffffffffffffffffff16815260200190815260200160002054141580156104e157506002600160003373ffffffffffffffffffffffffffffffffffffffff1673ffffffffffffffffffffffffffffffffffffffff16815260200190815260200160002054815481106104c1577f4e487b7100000000000000000000000000000000000000000000000000000000600052603260045260246000fd5b906000526020600020906008020160070160029054906101000a900460ff165b610520576040517f08c379a0000000000000000000000000000000000000000000000000000000008152600401610517906123a7565b60405180910390fd5b60008161ffff161415610568576040517f08c379a000000000000000000000000000000000000000000000000000000000815260040161055f90612307565b60405180910390fd5b806002600160003373ffffffffffffffffffffffffffffffffffffffff1673ffffffffffffffffffffffffffffffffffffffff16815260200190815260200160002054815481106105e2577f4e487b7100000000000000000000000000000000000000000000000000000000600052603260045260246000fd5b906000526020600020906008020160070160008282829054906101000a900461ffff1661060f91906124d9565b92506101000a81548161ffff021916908361ffff16021790555050565b60008054906101000a900473ffffffffffffffffffffffffffffffffffffffff1673ffffffffffffffffffffffffffffffffffffffff163373ffffffffffffffffffffffffffffffffffffffff16146106ba576040517f08c379a00000000000000000000000000000000000000000000000000000000081526004016106b1906123c7565b60405180910390fd5b6002600160008973ffffffffffffffffffffffffffffffffffffffff1673ffffffffffffffffffffffffffffffffffffffff1681526020019081526020016000205481548110610733577f4e487b7100000000000000000000000000000000000000000000000000000000600052603260045260246000fd5b906000526020600020906008020160070160029054906101000a900460ff1615610792576040517f08c379a000000000000000000000000000000000000000000000000000000000815260040161078990612387565b60405180910390fd5b60026040518061012001604052808973ffffffffffffffffffffffffffffffffffffffff168152602001888152602001878152602001868152602001858152602001848152602001838152602001600061ffff16815260200160011515815250908060018154018082558091505060019003906000526020600020906008020160009091909190915060008201518160000160006101000a81548173ffffffffffffffffffffffffffffffffffffffff021916908373ffffffffffffffffffffffffffffffffffffffff160217905550602082015181600101908051906020019061087e929190611bca565b50604082015181600201908051906020019061089b929190611bca565b5060608201518160030190805190602001906108b8929190611bca565b506080820151816004015560a0820151816005015560c08201518160060190805190602001906108e9929190611bca565b5060e08201518160070160006101000a81548161ffff021916908361ffff1602179055506101008201518160070160026101000a81548160ff0219169083151502179055505050600160028054905061094291906125d0565b600160008973ffffffffffffffffffffffffffffffffffffffff1673ffffffffffffffffffffffffffffffffffffffff168152602001908152602001600020819055506000601481819054906101000a900463ffffffff16809291906109a790612739565b91906101000a81548163ffffffff021916908363ffffffff1602179055505050505050505050565b6000600160003373ffffffffffffffffffffffffffffffffffffffff1673ffffffffffffffffffffffffffffffffffffffff1681526020019081526020016000205414158015610ab357506002600160003373ffffffffffffffffffffffffffffffffffffffff1673ffffffffffffffffffffffffffffffffffffffff1681526020019081526020016000205481548110610a93577f4e487b7100000000000000000000000000000000000000000000000000000000600052603260045260246000fd5b906000526020600020906008020160070160029054906101000a900460ff165b610af2576040517f08c379a0000000000000000000000000000000000000000000000000000000008152600401610ae9906123a7565b60405180910390fd5b806002600160003373ffffffffffffffffffffffffffffffffffffffff1673ffffffffffffffffffffffffffffffffffffffff1681526020019081526020016000205481548110610b6c577f4e487b7100000000000000000000000000000000000000000000000000000000600052603260045260246000fd5b90600052602060002090600802016006019080519060200190610b90929190611bca565b5050565b6000600160003373ffffffffffffffffffffffffffffffffffffffff1673ffffffffffffffffffffffffffffffffffffffff1681526020019081526020016000205414158015610c7857506002600160003373ffffffffffffffffffffffffffffffffffffffff1673ffffffffffffffffffffffffffffffffffffffff1681526020019081526020016000205481548110610c58577f4e487b7100000000000000000000000000000000000000000000000000000000600052603260045260246000fd5b906000526020600020906008020160070160029054906101000a900460ff165b610cb7576040517f08c379a0000000000000000000000000000000000000000000000000000000008152600401610cae906123a7565b60405180910390fd5b806002600160003373ffffffffffffffffffffffffffffffffffffffff1673ffffffffffffffffffffffffffffffffffffffff1681526020019081526020016000205481548110610d31577f4e487b7100000000000000000000000000000000000000000000000000000000600052603260045260246000fd5b90600052602060002090600802016005018190555050565b6000600160003373ffffffffffffffffffffffffffffffffffffffff1673ffffffffffffffffffffffffffffffffffffffff1681526020019081526020016000205414158015610e2d57506002600160003373ffffffffffffffffffffffffffffffffffffffff1673ffffffffffffffffffffffffffffffffffffffff1681526020019081526020016000205481548110610e0d577f4e487b7100000000000000000000000000000000000000000000000000000000600052603260045260246000fd5b906000526020600020906008020160070160029054906101000a900460ff165b610e6c576040517f08c379a0000000000000000000000000000000000000000000000000000000008152600401610e63906123a7565b60405180910390fd5b806002600160003373ffffffffffffffffffffffffffffffffffffffff1673ffffffffffffffffffffffffffffffffffffffff1681526020019081526020016000205481548110610ee6577f4e487b7100000000000000000000000000000000000000000000000000000000600052603260045260246000fd5b90600052602060002090600802016004018190555050565b60008060009054906101000a900473ffffffffffffffffffffffffffffffffffffffff16905090565b600047905090565b600060149054906101000a900463ffffffff1681565b60008054906101000a900473ffffffffffffffffffffffffffffffffffffffff1673ffffffffffffffffffffffffffffffffffffffff163373ffffffffffffffffffffffffffffffffffffffff1614610fd3576040517f08c379a0000000000000000000000000000000000000000000000000000000008152600401610fca906123c7565b60405180910390fd5b6002600160008373ffffffffffffffffffffffffffffffffffffffff1673ffffffffffffffffffffffffffffffffffffffff168152602001908152602001600020548154811061104c577f4e487b7100000000000000000000000000000000000000000000000000000000600052603260045260246000fd5b906000526020600020906008020160070160029054906101000a900460ff166110aa576040517f08c379a00000000000000000000000000000000000000000000000000000000081526004016110a190612347565b60405180910390fd5b6002600160008373ffffffffffffffffffffffffffffffffffffffff1673ffffffffffffffffffffffffffffffffffffffff1681526020019081526020016000205481548110611123577f4e487b7100000000000000000000000000000000000000000000000000000000600052603260045260246000fd5b9060005260206000209060080201600080820160006101000a81549073ffffffffffffffffffffffffffffffffffffffff02191690556001820160006111699190611c50565b6002820160006111799190611c50565b6003820160006111899190611c50565b600482016000905560058201600090556006820160006111a99190611c50565b6007820160006101000a81549061ffff02191690556007820160026101000a81549060ff02191690555050600160008273ffffffffffffffffffffffffffffffffffffffff1673ffffffffffffffffffffffffffffffffffffffff168152602001908152602001600020600090556000601481819054906101000a900463ffffffff1680929190611239906126ac565b91906101000a81548163ffffffff021916908363ffffffff1602179055505050565b6002600160008473ffffffffffffffffffffffffffffffffffffffff1673ffffffffffffffffffffffffffffffffffffffff16815260200190815260200160002054815481106112d4577f4e487b7100000000000000000000000000000000000000000000000000000000600052603260045260246000fd5b906000526020600020906008020160070160029054906101000a900460ff16611332576040517f08c379a000000000000000000000000000000000000000000000000000000000815260040161132990612347565b60405180910390fd5b60008161ffff16141561137a576040517f08c379a0000000000000000000000000000000000000000000000000000000008152600401611371906122c7565b60405180910390fd5b6002600160008473ffffffffffffffffffffffffffffffffffffffff1673ffffffffffffffffffffffffffffffffffffffff16815260200190815260200160002054815481106113f3577f4e487b7100000000000000000000000000000000000000000000000000000000600052603260045260246000fd5b906000526020600020906008020160070160009054906101000a900461ffff1661ffff168161ffff16111561145d576040517f08c379a0000000000000000000000000000000000000000000000000000000008152600401611454906122e7565b60405180910390fd5b8061ffff166002600160008573ffffffffffffffffffffffffffffffffffffffff1673ffffffffffffffffffffffffffffffffffffffff16815260200190815260200160002054815481106114db577f4e487b7100000000000000000000000000000000000000000000000000000000600052603260045260246000fd5b9060005260206000209060080201600401546114f79190612542565b341015611539576040517f08c379a000000000000000000000000000000000000000000000000000000000815260040161153090612367565b60405180910390fd5b6000606460423461154a9190612542565b6115549190612511565b90508273ffffffffffffffffffffffffffffffffffffffff166108fc829081150290604051600060405180830381858888f1935050505015801561159c573d6000803e3d6000fd5b50816002600160008673ffffffffffffffffffffffffffffffffffffffff1673ffffffffffffffffffffffffffffffffffffffff1681526020019081526020016000205481548110611617577f4e487b7100000000000000000000000000000000000000000000000000000000600052603260045260246000fd5b906000526020600020906008020160070160008282829054906101000a900461ffff16611644919061259c565b92506101000a81548161ffff021916908361ffff1602179055508161ffff168373ffffffffffffffffffffffffffffffffffffffff163373ffffffffffffffffffffffffffffffffffffffff167fdb38fff34409f55fc66246bd547349528f9678af7ecd96e1341e361cb067fe9a60405160405180910390a4505050565b60606002805480602002602001604051908101604052809291908181526020016000905b82821015611a065783829060005260206000209060080201604051806101200160405290816000820160009054906101000a900473ffffffffffffffffffffffffffffffffffffffff1673ffffffffffffffffffffffffffffffffffffffff1673ffffffffffffffffffffffffffffffffffffffff168152602001600182018054611770906126d6565b80601f016020809104026020016040519081016040528092919081815260200182805461179c906126d6565b80156117e95780601f106117be576101008083540402835291602001916117e9565b820191906000526020600020905b8154815290600101906020018083116117cc57829003601f168201915b50505050508152602001600282018054611802906126d6565b80601f016020809104026020016040519081016040528092919081815260200182805461182e906126d6565b801561187b5780601f106118505761010080835404028352916020019161187b565b820191906000526020600020905b81548152906001019060200180831161185e57829003601f168201915b50505050508152602001600382018054611894906126d6565b80601f01602080910402602001604051908101604052809291908181526020018280546118c0906126d6565b801561190d5780601f106118e25761010080835404028352916020019161190d565b820191906000526020600020905b8154815290600101906020018083116118f057829003601f168201915b50505050508152602001600482015481526020016005820154815260200160068201805461193a906126d6565b80601f0160208091040260200160405190810160405280929190818152602001828054611966906126d6565b80156119b35780601f10611988576101008083540402835291602001916119b3565b820191906000526020600020905b81548152906001019060200180831161199657829003601f168201915b505050505081526020016007820160009054906101000a900461ffff1661ffff1661ffff1681526020016007820160029054906101000a900460ff161515151581525050815260200190600101906116e6565b50505050905090565b60008054906101000a900473ffffffffffffffffffffffffffffffffffffffff1673ffffffffffffffffffffffffffffffffffffffff163373ffffffffffffffffffffffffffffffffffffffff1614611a9d576040517f08c379a0000000000000000000000000000000000000000000000000000000008152600401611a94906123c7565b60405180910390fd5b600073ffffffffffffffffffffffffffffffffffffffff168173ffffffffffffffffffffffffffffffffffffffff161415611b0d576040517f08c379a0000000000000000000000000000000000000000000000000000000008152600401611b0490612327565b60405180910390fd5b8073ffffffffffffffffffffffffffffffffffffffff1660008054906101000a900473ffffffffffffffffffffffffffffffffffffffff1673ffffffffffffffffffffffffffffffffffffffff167f7699c77f2404f9b6bbd003861bb4af8ae70b205e19e73d7ec7fe4590db59a6b760405160405180910390a3806000806101000a81548173ffffffffffffffffffffffffffffffffffffffff021916908373ffffffffffffffffffffffffffffffffffffffff16021790555050565b828054611bd6906126d6565b90600052602060002090601f016020900481019282611bf85760008555611c3f565b82601f10611c1157805160ff1916838001178555611c3f565b82800160010185558215611c3f579182015b82811115611c3e578251825591602001919060010190611c23565b5b509050611c4c9190611c90565b5090565b508054611c5c906126d6565b6000825580601f10611c6e5750611c8d565b601f016020900490600052602060002090810190611c8c9190611c90565b5b50565b5b80821115611ca9576000816000905550600101611c91565b5090565b6000611cc0611cbb84612442565b61241d565b905082815260208101848484011115611cd857600080fd5b611ce384828561266a565b509392505050565b600081359050611cfa81612aae565b92915050565b600082601f830112611d1157600080fd5b8135611d21848260208601611cad565b91505092915050565b600081359050611d3981612ac5565b92915050565b600081359050611d4e81612adc565b92915050565b600060208284031215611d6657600080fd5b6000611d7484828501611ceb565b91505092915050565b600080600080600080600060e0888a031215611d9857600080fd5b6000611da68a828b01611ceb565b975050602088013567ffffffffffffffff811115611dc357600080fd5b611dcf8a828b01611d00565b965050604088013567ffffffffffffffff811115611dec57600080fd5b611df88a828b01611d00565b955050606088013567ffffffffffffffff811115611e1557600080fd5b611e218a828b01611d00565b9450506080611e328a828b01611d3f565b93505060a0611e438a828b01611d3f565b92505060c088013567ffffffffffffffff811115611e6057600080fd5b611e6c8a828b01611d00565b91505092959891949750929550565b60008060408385031215611e8e57600080fd5b6000611e9c85828601611ceb565b9250506020611ead85828601611d2a565b9150509250929050565b600060208284031215611ec957600080fd5b600082013567ffffffffffffffff811115611ee357600080fd5b611eef84828501611d00565b91505092915050565b600060208284031215611f0a57600080fd5b6000611f1884828501611d2a565b91505092915050565b600060208284031215611f3357600080fd5b6000611f4184828501611d3f565b91505092915050565b6000611f568383612174565b905092915050565b611f6781612604565b82525050565b611f7681612604565b82525050565b6000611f8782612483565b611f9181856124a6565b935083602082028501611fa385612473565b8060005b85811015611fdf5784840389528151611fc08582611f4a565b9450611fcb83612499565b925060208a01995050600181019050611fa7565b50829750879550505050505092915050565b611ffa81612616565b82525050565b600061200b8261248e565b61201581856124b7565b9350612025818560208601612679565b61202e81612822565b840191505092915050565b60006120466022836124c8565b915061205182612833565b604082019050919050565b60006120696024836124c8565b915061207482612882565b604082019050919050565b600061208c6020836124c8565b9150612097826128d1565b602082019050919050565b60006120af6038836124c8565b91506120ba826128fa565b604082019050919050565b60006120d2602d836124c8565b91506120dd82612949565b604082019050919050565b60006120f5601e836124c8565b915061210082612998565b602082019050919050565b6000612118602e836124c8565b9150612123826129c1565b604082019050919050565b600061213b602e836124c8565b915061214682612a10565b604082019050919050565b600061215e6037836124c8565b915061216982612a5f565b604082019050919050565b60006101208301600083015161218d6000860182611f5e565b50602083015184820360208601526121a58282612000565b915050604083015184820360408601526121bf8282612000565b915050606083015184820360608601526121d98282612000565b91505060808301516121ee608086018261225d565b5060a083015161220160a086018261225d565b5060c083015184820360c08601526122198282612000565b91505060e083015161222e60e086018261224e565b50610100830151612243610100860182611ff1565b508091505092915050565b61225781612622565b82525050565b61226681612650565b82525050565b61227581612650565b82525050565b6122848161265a565b82525050565b600060208201905061229f6000830184611f6d565b92915050565b600060208201905081810360008301526122bf8184611f7c565b905092915050565b600060208201905081810360008301526122e081612039565b9050919050565b600060208201905081810360008301526123008161205c565b9050919050565b600060208201905081810360008301526123208161207f565b9050919050565b60006020820190508181036000830152612340816120a2565b9050919050565b60006020820190508181036000830152612360816120c5565b9050919050565b60006020820190508181036000830152612380816120e8565b9050919050565b600060208201905081810360008301526123a08161210b565b9050919050565b600060208201905081810360008301526123c08161212e565b9050919050565b600060208201905081810360008301526123e081612151565b9050919050565b60006020820190506123fc600083018461226c565b92915050565b6000602082019050612417600083018461227b565b92915050565b6000612427612438565b90506124338282612708565b919050565b6000604051905090565b600067ffffffffffffffff82111561245d5761245c6127f3565b5b61246682612822565b9050602081019050919050565b6000819050602082019050919050565b600081519050919050565b600081519050919050565b6000602082019050919050565b600082825260208201905092915050565b600082825260208201905092915050565b600082825260208201905092915050565b60006124e482612622565b91506124ef83612622565b92508261ffff0382111561250657612505612766565b5b828201905092915050565b600061251c82612650565b915061252783612650565b92508261253757612536612795565b5b828204905092915050565b600061254d82612650565b915061255883612650565b9250817fffffffffffffffffffffffffffffffffffffffffffffffffffffffffffffffff048311821515161561259157612590612766565b5b828202905092915050565b60006125a782612622565b91506125b283612622565b9250828210156125c5576125c4612766565b5b828203905092915050565b60006125db82612650565b91506125e683612650565b9250828210156125f9576125f8612766565b5b828203905092915050565b600061260f82612630565b9050919050565b60008115159050919050565b600061ffff82169050919050565b600073ffffffffffffffffffffffffffffffffffffffff82169050919050565b6000819050919050565b600063ffffffff82169050919050565b82818337600083830152505050565b60005b8381101561269757808201518184015260208101905061267c565b838111156126a6576000848401525b50505050565b60006126b78261265a565b915060008214156126cb576126ca612766565b5b600182039050919050565b600060028204905060018216806126ee57607f821691505b60208210811415612702576127016127c4565b5b50919050565b61271182612822565b810181811067ffffffffffffffff821117156127305761272f6127f3565b5b80604052505050565b60006127448261265a565b915063ffffffff82141561275b5761275a612766565b5b600182019050919050565b7f4e487b7100000000000000000000000000000000000000000000000000000000600052601160045260246000fd5b7f4e487b7100000000000000000000000000000000000000000000000000000000600052601260045260246000fd5b7f4e487b7100000000000000000000000000000000000000000000000000000000600052602260045260246000fd5b7f4e487b7100000000000000000000000000000000000000000000000000000000600052604160045260246000fd5b6000601f19601f8301169050919050565b7f46617265636861696e323a2043616e6e6f74207075726368617365203020626160008201527f6773000000000000000000000000000000000000000000000000000000000000602082015250565b7f46617265636861696e323a204e6f7420656e6f756768206261677320696e207360008201527f746f636b00000000000000000000000000000000000000000000000000000000602082015250565b7f46617265636861696e323a2043616e6e6f7420616464207a65726f2062616773600082015250565b7f416363657373436f6e74726f6c3a2043616e6e6f74207472616e73666572206f60008201527f776e65727368697020746f207a65726f20616464726573730000000000000000602082015250565b7f46617265636861696e323a204f7267616e69736174696f6e206164647265737360008201527f206973206e6f742076616c696400000000000000000000000000000000000000602082015250565b7f46617265636861696e323a20496e73756666696369656e742066756e64730000600082015250565b7f46617265636861696e323a204f7267616e69736174696f6e20697320616c726560008201527f6164792072656769737465726564000000000000000000000000000000000000602082015250565b7f46617265636861696e323a2043616c6c6572206973206e6f7420612076616c6960008201527f64206f7267616e69736174696f6e000000000000000000000000000000000000602082015250565b7f416363657373436f6e74726f6c3a2046756e6374696f6e206f6e6c792063616c60008201527f6c61626c6520627920636f6e7472616374206f776e6572000000000000000000602082015250565b612ab781612604565b8114612ac257600080fd5b50565b612ace81612622565b8114612ad957600080fd5b50565b612ae581612650565b8114612af057600080fd5b5056fea264697066735822122022a5c45d95833d281322710795419fc05fa492c05775ee1c95103812e9b27f8d64736f6c63430008010033",
  "immutableReferences": {},
  "source": "// SPDX-License-Identifier: MIT\npragma solidity ^0.8.0;\n\nimport \"./AccessControl.sol\";\n\n/// @title Farechain smart-contract.\ncontract Farechain2 is AccessControl {\n  /*** EVENTS ***/\n\n  /// @dev Emitted when a purchase is made. \n  event Purchased(\n    address indexed buyerAddress,\n    address indexed organisationAddress,\n    uint16 indexed quantity\n  );\n\n  /*** MODIFIERS ***/\n  \n  /// @dev Functions with modifier can only be called by a valid organisation.\n  modifier isOrganisation {\n    require((addressToIndex[msg.sender] != 0) &&\n      organisations[addressToIndex[msg.sender]].valid, \"Farechain2: Caller is not a valid organisation\");\n    _;\n  }\n\n  /*** DATA STRUCTURES ***/\n\n  /// @dev Stores the data of an organisation.\n  struct Organisation {\n    address organisationAddress;\n    string organisationName;\n    string organisationPhone;\n    string organisationLocation;\n    uint256 bagPrice;\n    uint256 bagValue;\n    string bagDescription;\n    uint16 totalBags;\n    bool valid;\n  }\n  \n  /*** STORAGE ***/\n  \n  /// @dev Total number of organisations operating on the platform.\n  uint32 public totalOrganisations;\n\n  /// @dev Mapping from organisation's Ethereum address to corresponding\n  ///   index in organisations array. Do not use for validation as default\n  ///   zero value will clash with first item in array.\n  mapping(address => uint256) addressToIndex;\n\n  /// @dev Array of all organisations.\n  Organisation[] organisations;\n\n  /*** FUNCTIONS ***/\n\n  /// @dev Set zero item in array to an empty struct to prevent bugs\n  ///   caused due to mapping having default value of 0.\n  constructor () {\n    organisations.push(Organisation({\n      organisationAddress: address(0),\n      organisationName: \"\",\n      organisationPhone: \"\",\n      organisationLocation: \"\",\n      bagPrice: 0,\n      bagValue: 0,\n      bagDescription: \"\",\n      totalBags: 0,\n      valid: false\n    }));\n  }\n\n  /// @dev Returns balance of contract in Wei.\n  function balance() public view returns (uint256) {\n    return address(this).balance;\n  }\n\n  /// @dev Withdraw specified funds from the contract. Only callable by owner.\n  /// @param amount Amount to be withdrawn in Wei\n  function withdraw(uint256 amount) public onlyOwner {\n    require(amount <= address(this).balance, \"Farechain2: Insufficient funds\");\n\n    payable(msg.sender).transfer(amount);\n  }\n\n  /// @dev Add new organisation.\n  /// @param organisationAddress Ethereum address of organisation\n  /// @param organisationName Name of organisation\n  /// @param organisationPhone Phone number of organisation\n  /// @param organisationLocation Location of organisation\n  /// @param bagPrice Price of the bag in Wei.\n  /// @param bagValue Value of the bag in Wei.\n  /// @param bagDescription Short description of the bag contents.\n  function addOrganisation(\n    address organisationAddress,\n    string memory organisationName,\n    string memory organisationPhone,\n    string memory organisationLocation,\n    uint256 bagPrice,\n    uint256 bagValue,\n    string memory bagDescription\n    ) public onlyOwner {\n    require(!organisations[addressToIndex[organisationAddress]].valid, \"Farechain2: Organisation is already registered\");\n\n    organisations.push(Organisation({\n      organisationAddress: organisationAddress,\n      organisationName: organisationName,\n      organisationPhone: organisationPhone,\n      organisationLocation: organisationLocation,\n      bagPrice: bagPrice,\n      bagValue: bagValue,\n      bagDescription: bagDescription,\n      totalBags: 0,\n      valid: true\n    }));\n\n    addressToIndex[organisationAddress] = organisations.length - 1;\n    totalOrganisations++;\n  }\n\n  /// @dev Remove organisation.\n  /// @param organisationAddress Ethereum address of organisation\n  function removeOrganisation(address organisationAddress) public onlyOwner {\n    require(organisations[addressToIndex[organisationAddress]].valid, \"Farechain2: Organisation address is not valid\");\n\n    delete organisations[addressToIndex[organisationAddress]];\n    delete addressToIndex[organisationAddress];\n    totalOrganisations--;\n  }\n\n  /// @dev Return array of all organisations. Will contain elements with\n  ///   empty structs after deletions occur.\n  function getOrganisations() public view returns (Organisation[] memory) {\n    return organisations;\n  }\n\n  /// @dev Change price of bag.\n  /// @param newPrice New price of bag in Wei\n  function updateBagPrice(uint256 newPrice) public isOrganisation {\n    organisations[addressToIndex[msg.sender]].bagPrice = newPrice;\n  }\n\n  /// @dev Change value of bag.\n  /// @param newValue New value of bag in Wei\n  function updateBagValue(uint256 newValue) public isOrganisation {\n    organisations[addressToIndex[msg.sender]].bagValue = newValue;\n  }\n\n  /// @dev Change description of bag.\n  /// @param newDescription New description of bag\n  function updateBagDescription(string memory newDescription) public isOrganisation {\n    organisations[addressToIndex[msg.sender]].bagDescription = newDescription;\n  }\n\n  /// @dev Update organisation's stock of bags.\n  /// @param quantity Number of bags to be added\n  function addBags(uint16 quantity) public isOrganisation {\n    require(quantity != 0, \"Farechain2: Cannot add zero bags\");\n\n    organisations[addressToIndex[msg.sender]].totalBags += quantity;\n  }\n\n  /// @dev Buy specified quantity of bags from organisation.\n  /// @param organisationAddress Ethereum address of organisation\n  /// @param quantity Number of bags to be purchased\n  function buy(address organisationAddress, uint16 quantity) public payable {\n    require(organisations[addressToIndex[organisationAddress]].valid, \"Farechain2: Organisation address is not valid\");\n    require(quantity != 0, \"Farechain2: Cannot purchase 0 bags\");\n    require(quantity <= organisations[addressToIndex[organisationAddress]].totalBags, \"Farechain2: Not enough bags in stock\");\n    require(msg.value >= (organisations[addressToIndex[organisationAddress]].bagPrice * quantity), \"Farechain2: Insufficient funds\");\n\n    uint256 sellerCut = (msg.value * 66) / 100;\n    payable(organisationAddress).transfer(sellerCut);\n\n    organisations[addressToIndex[organisationAddress]].totalBags -= quantity;\n    emit Purchased(msg.sender, organisationAddress, quantity);\n  }\n\n  /// @dev Fallback function.\n  receive() external payable {}\n}",
  "sourcePath": "/Users/hussain/farechain/blockchain/contracts/Farechain2.sol",
  "compiler": {
    "name": "solc",
    "version": "0.8.1+commit.df193b15.Emscripten.clang"
  },
  "schemaVersion": "3.4.1",
  "updatedAt": "2021-08-03T11:20:01.321Z",
  "networkType": "ethereum",
  "devdoc": {
    "events": {
      "Purchased(address,address,uint16)": {
        "details": "Emitted when a purchase is made. "
      }
    },
    "kind": "dev",
    "methods": {
      "addBags(uint16)": {
        "details": "Update organisation's stock of bags.",
        "params": {
          "quantity": "Number of bags to be added"
        }
      },
      "addOrganisation(address,string,string,string,uint256,uint256,string)": {
        "details": "Add new organisation.",
        "params": {
          "bagDescription": "Short description of the bag contents.",
          "bagPrice": "Price of the bag in Wei.",
          "bagValue": "Value of the bag in Wei.",
          "organisationAddress": "Ethereum address of organisation",
          "organisationLocation": "Location of organisation",
          "organisationName": "Name of organisation",
          "organisationPhone": "Phone number of organisation"
        }
      },
      "balance()": {
        "details": "Returns balance of contract in Wei."
      },
      "buy(address,uint16)": {
        "details": "Buy specified quantity of bags from organisation.",
        "params": {
          "organisationAddress": "Ethereum address of organisation",
          "quantity": "Number of bags to be purchased"
        }
      },
      "constructor": {
        "details": "Set zero item in array to an empty struct to prevent bugs   caused due to mapping having default value of 0."
      },
      "getOrganisations()": {
        "details": "Return array of all organisations. Will contain elements with   empty structs after deletions occur."
      },
      "owner()": {
        "details": "Returns address of current contract owner."
      },
      "removeOrganisation(address)": {
        "details": "Remove organisation.",
        "params": {
          "organisationAddress": "Ethereum address of organisation"
        }
      },
      "transferOwnership(address)": {
        "details": "Transfer ownership of contract.",
        "params": {
          "to": "Address of new owner. "
        }
      },
      "updateBagDescription(string)": {
        "details": "Change description of bag.",
        "params": {
          "newDescription": "New description of bag"
        }
      },
      "updateBagPrice(uint256)": {
        "details": "Change price of bag.",
        "params": {
          "newPrice": "New price of bag in Wei"
        }
      },
      "updateBagValue(uint256)": {
        "details": "Change value of bag.",
        "params": {
          "newValue": "New value of bag in Wei"
        }
      },
      "withdraw(uint256)": {
        "details": "Withdraw specified funds from the contract. Only callable by owner.",
        "params": {
          "amount": "Amount to be withdrawn in Wei"
        }
      }
    },
    "stateVariables": {
      "addressToIndex": {
        "details": "Mapping from organisation's Ethereum address to corresponding   index in organisations array. Do not use for validation as default   zero value will clash with first item in array."
      },
      "organisations": {
        "details": "Array of all organisations."
      },
      "totalOrganisations": {
        "details": "Total number of organisations operating on the platform."
      }
    },
    "title": "Farechain smart-contract.",
    "version": 1
  },
  "userdoc": {
    "kind": "user",
    "methods": {},
    "version": 1
  }
}