{
  "contractName": "Farechain",
  "abi": [
    {
      "inputs": [],
      "stateMutability": "nonpayable",
      "type": "constructor"
    },
    {
      "anonymous": false,
      "inputs": [
        {
          "indexed": true,
          "internalType": "address",
          "name": "buyerAddress",
          "type": "address"
        },
        {
          "indexed": true,
          "internalType": "address",
          "name": "organisationAddress",
          "type": "address"
        },
        {
          "indexed": true,
          "internalType": "uint16",
          "name": "quantity",
          "type": "uint16"
        }
      ],
      "name": "Purchased",
      "type": "event"
    },
    {
      "anonymous": false,
      "inputs": [
        {
          "indexed": true,
          "internalType": "address",
          "name": "from",
          "type": "address"
        },
        {
          "indexed": true,
          "internalType": "address",
          "name": "to",
          "type": "address"
        }
      ],
      "name": "ownershipTransferred",
      "type": "event"
    },
    {
      "inputs": [],
      "name": "owner",
      "outputs": [
        {
          "internalType": "address",
          "name": "",
          "type": "address"
        }
      ],
      "stateMutability": "view",
      "type": "function",
      "constant": true
    },
    {
      "inputs": [],
      "name": "totalOrganisations",
      "outputs": [
        {
          "internalType": "uint32",
          "name": "",
          "type": "uint32"
        }
      ],
      "stateMutability": "view",
      "type": "function",
      "constant": true
    },
    {
      "inputs": [
        {
          "internalType": "address",
          "name": "to",
          "type": "address"
        }
      ],
      "name": "transferOwnership",
      "outputs": [],
      "stateMutability": "nonpayable",
      "type": "function"
    },
    {
      "stateMutability": "payable",
      "type": "receive",
      "payable": true
    },
    {
      "inputs": [],
      "name": "balance",
      "outputs": [
        {
          "internalType": "uint256",
          "name": "",
          "type": "uint256"
        }
      ],
      "stateMutability": "view",
      "type": "function",
      "constant": true
    },
    {
      "inputs": [
        {
          "internalType": "uint256",
          "name": "amount",
          "type": "uint256"
        }
      ],
      "name": "withdraw",
      "outputs": [],
      "stateMutability": "nonpayable",
      "type": "function"
    },
    {
      "inputs": [
        {
          "internalType": "address",
          "name": "organisationAddress",
          "type": "address"
        },
        {
          "internalType": "string",
          "name": "organisationName",
          "type": "string"
        },
        {
          "internalType": "string",
          "name": "organisationPhone",
          "type": "string"
        },
        {
          "internalType": "string",
          "name": "organisationLocation",
          "type": "string"
        },
        {
          "internalType": "uint256",
          "name": "bagPrice",
          "type": "uint256"
        },
        {
          "internalType": "uint256",
          "name": "bagValue",
          "type": "uint256"
        }
      ],
      "name": "addOrganisation",
      "outputs": [],
      "stateMutability": "nonpayable",
      "type": "function"
    },
    {
      "inputs": [
        {
          "internalType": "address",
          "name": "organisationAddress",
          "type": "address"
        }
      ],
      "name": "removeOrganisation",
      "outputs": [],
      "stateMutability": "nonpayable",
      "type": "function"
    },
    {
      "inputs": [],
      "name": "getOrganisations",
      "outputs": [
        {
          "components": [
            {
              "internalType": "address",
              "name": "organisationAddress",
              "type": "address"
            },
            {
              "internalType": "string",
              "name": "organisationName",
              "type": "string"
            },
            {
              "internalType": "string",
              "name": "organisationPhone",
              "type": "string"
            },
            {
              "internalType": "string",
              "name": "organisationLocation",
              "type": "string"
            },
            {
              "internalType": "uint256",
              "name": "bagPrice",
              "type": "uint256"
            },
            {
              "internalType": "uint256",
              "name": "bagValue",
              "type": "uint256"
            },
            {
              "internalType": "uint16",
              "name": "totalBags",
              "type": "uint16"
            },
            {
              "internalType": "bool",
              "name": "valid",
              "type": "bool"
            }
          ],
          "internalType": "struct Farechain.Organisation[]",
          "name": "",
          "type": "tuple[]"
        }
      ],
      "stateMutability": "view",
      "type": "function",
      "constant": true
    },
    {
      "inputs": [
        {
          "internalType": "uint256",
          "name": "newPrice",
          "type": "uint256"
        }
      ],
      "name": "updateBagPrice",
      "outputs": [],
      "stateMutability": "nonpayable",
      "type": "function"
    },
    {
      "inputs": [
        {
          "internalType": "uint256",
          "name": "newValue",
          "type": "uint256"
        }
      ],
      "name": "updateBagValue",
      "outputs": [],
      "stateMutability": "nonpayable",
      "type": "function"
    },
    {
      "inputs": [
        {
          "internalType": "uint16",
          "name": "quantity",
          "type": "uint16"
        }
      ],
      "name": "addBags",
      "outputs": [],
      "stateMutability": "nonpayable",
      "type": "function"
    },
    {
      "inputs": [
        {
          "internalType": "address",
          "name": "organisationAddress",
          "type": "address"
        },
        {
          "internalType": "uint16",
          "name": "quantity",
          "type": "uint16"
        }
      ],
      "name": "buy",
      "outputs": [],
      "stateMutability": "payable",
      "type": "function",
      "payable": true
    }
  ],
  "bytecode": "0x60806040523480156200001157600080fd5b50336000806101000a81548173ffffffffffffffffffffffffffffffffffffffff021916908373ffffffffffffffffffffffffffffffffffffffff16021790555060008054906101000a900473ffffffffffffffffffffffffffffffffffffffff1673ffffffffffffffffffffffffffffffffffffffff16600073ffffffffffffffffffffffffffffffffffffffff167f7699c77f2404f9b6bbd003861bb4af8ae70b205e19e73d7ec7fe4590db59a6b760405160405180910390a36002604051806101000160405280600073ffffffffffffffffffffffffffffffffffffffff1681526020016040518060200160405280600081525081526020016040518060200160405280600081525081526020016040518060200160405280600081525081526020016000815260200160008152602001600061ffff16815260200160001515815250908060018154018082558091505060019003906000526020600020906007020160009091909190915060008201518160000160006101000a81548173ffffffffffffffffffffffffffffffffffffffff021916908373ffffffffffffffffffffffffffffffffffffffff1602179055506020820151816001019080519060200190620001e592919062000283565b5060408201518160020190805190602001906200020492919062000283565b5060608201518160030190805190602001906200022392919062000283565b506080820151816004015560a0820151816005015560c08201518160060160006101000a81548161ffff021916908361ffff16021790555060e08201518160060160026101000a81548160ff021916908315150217905550505062000398565b828054620002919062000333565b90600052602060002090601f016020900481019282620002b5576000855562000301565b82601f10620002d057805160ff191683800117855562000301565b8280016001018555821562000301579182015b8281111562000300578251825591602001919060010190620002e3565b5b50905062000310919062000314565b5090565b5b808211156200032f57600081600090555060010162000315565b5090565b600060028204905060018216806200034c57607f821691505b6020821081141562000363576200036262000369565b5b50919050565b7f4e487b7100000000000000000000000000000000000000000000000000000000600052602260045260246000fd5b6127cf80620003a86000396000f3fe6080604052600436106100ab5760003560e01c8063b69ef8a811610064578063b69ef8a8146101af578063c1750986146101da578063d1f8a20814610205578063d2efcd851461022e578063eaffd4291461024a578063f2fde38b14610275576100b2565b80632e1a7d4d146100b7578063510e7ff1146100e057806368d544db1461010957806384d09b15146101325780638c1a6cd11461015b5780638da5cb5b14610184576100b2565b366100b257005b600080fd5b3480156100c357600080fd5b506100de60048036038101906100d99190611be3565b61029e565b005b3480156100ec57600080fd5b5061010760048036038101906101029190611bba565b6103b9565b005b34801561011557600080fd5b50610130600480360381019061012b9190611aad565b6105e8565b005b34801561013e57600080fd5b5061015960048036038101906101549190611be3565b610966565b005b34801561016757600080fd5b50610182600480360381019061017d9190611be3565b610b1b565b005b34801561019057600080fd5b50610199610cd0565b6040516101a69190611f30565b60405180910390f35b3480156101bb57600080fd5b506101c4610cf9565b6040516101d1919061208d565b60405180910390f35b3480156101e657600080fd5b506101ef610d01565b6040516101fc91906120a8565b60405180910390f35b34801561021157600080fd5b5061022c60048036038101906102279190611a84565b610d17565b005b61024860048036038101906102439190611b7e565b61101d565b005b34801561025657600080fd5b5061025f611484565b60405161026c9190611f4b565b60405180910390f35b34801561028157600080fd5b5061029c60048036038101906102979190611a84565b61173f565b005b60008054906101000a900473ffffffffffffffffffffffffffffffffffffffff1673ffffffffffffffffffffffffffffffffffffffff163373ffffffffffffffffffffffffffffffffffffffff161461032c576040517f08c379a00000000000000000000000000000000000000000000000000000000081526004016103239061206d565b60405180910390fd5b4781111561036f576040517f08c379a000000000000000000000000000000000000000000000000000000000815260040161036690611fed565b60405180910390fd5b3373ffffffffffffffffffffffffffffffffffffffff166108fc829081150290604051600060405180830381858888f193505050501580156103b5573d6000803e3d6000fd5b5050565b6000600160003373ffffffffffffffffffffffffffffffffffffffff1673ffffffffffffffffffffffffffffffffffffffff168152602001908152602001600020541415801561049d57506002600160003373ffffffffffffffffffffffffffffffffffffffff1673ffffffffffffffffffffffffffffffffffffffff168152602001908152602001600020548154811061047d577f4e487b7100000000000000000000000000000000000000000000000000000000600052603260045260246000fd5b906000526020600020906007020160060160029054906101000a900460ff165b6104dc576040517f08c379a00000000000000000000000000000000000000000000000000000000081526004016104d39061204d565b60405180910390fd5b60008161ffff161415610524576040517f08c379a000000000000000000000000000000000000000000000000000000000815260040161051b90611f8d565b60405180910390fd5b806002600160003373ffffffffffffffffffffffffffffffffffffffff1673ffffffffffffffffffffffffffffffffffffffff168152602001908152602001600020548154811061059e577f4e487b7100000000000000000000000000000000000000000000000000000000600052603260045260246000fd5b906000526020600020906007020160060160008282829054906101000a900461ffff166105cb919061217f565b92506101000a81548161ffff021916908361ffff16021790555050565b60008054906101000a900473ffffffffffffffffffffffffffffffffffffffff1673ffffffffffffffffffffffffffffffffffffffff163373ffffffffffffffffffffffffffffffffffffffff1614610676576040517f08c379a000000000000000000000000000000000000000000000000000000000815260040161066d9061206d565b60405180910390fd5b6002600160008873ffffffffffffffffffffffffffffffffffffffff1673ffffffffffffffffffffffffffffffffffffffff16815260200190815260200160002054815481106106ef577f4e487b7100000000000000000000000000000000000000000000000000000000600052603260045260246000fd5b906000526020600020906007020160060160029054906101000a900460ff161561074e576040517f08c379a00000000000000000000000000000000000000000000000000000000081526004016107459061200d565b60405180910390fd5b60026040518061010001604052808873ffffffffffffffffffffffffffffffffffffffff168152602001878152602001868152602001858152602001848152602001838152602001600061ffff16815260200160011515815250908060018154018082558091505060019003906000526020600020906007020160009091909190915060008201518160000160006101000a81548173ffffffffffffffffffffffffffffffffffffffff021916908373ffffffffffffffffffffffffffffffffffffffff16021790555060208201518160010190805190602001906108349291906118fa565b5060408201518160020190805190602001906108519291906118fa565b50606082015181600301908051906020019061086e9291906118fa565b506080820151816004015560a0820151816005015560c08201518160060160006101000a81548161ffff021916908361ffff16021790555060e08201518160060160026101000a81548160ff021916908315150217905550505060016002805490506108da9190612276565b600160008873ffffffffffffffffffffffffffffffffffffffff1673ffffffffffffffffffffffffffffffffffffffff168152602001908152602001600020819055506000601481819054906101000a900463ffffffff168092919061093f906123df565b91906101000a81548163ffffffff021916908363ffffffff16021790555050505050505050565b6000600160003373ffffffffffffffffffffffffffffffffffffffff1673ffffffffffffffffffffffffffffffffffffffff1681526020019081526020016000205414158015610a4a57506002600160003373ffffffffffffffffffffffffffffffffffffffff1673ffffffffffffffffffffffffffffffffffffffff1681526020019081526020016000205481548110610a2a577f4e487b7100000000000000000000000000000000000000000000000000000000600052603260045260246000fd5b906000526020600020906007020160060160029054906101000a900460ff165b610a89576040517f08c379a0000000000000000000000000000000000000000000000000000000008152600401610a809061204d565b60405180910390fd5b806002600160003373ffffffffffffffffffffffffffffffffffffffff1673ffffffffffffffffffffffffffffffffffffffff1681526020019081526020016000205481548110610b03577f4e487b7100000000000000000000000000000000000000000000000000000000600052603260045260246000fd5b90600052602060002090600702016005018190555050565b6000600160003373ffffffffffffffffffffffffffffffffffffffff1673ffffffffffffffffffffffffffffffffffffffff1681526020019081526020016000205414158015610bff57506002600160003373ffffffffffffffffffffffffffffffffffffffff1673ffffffffffffffffffffffffffffffffffffffff1681526020019081526020016000205481548110610bdf577f4e487b7100000000000000000000000000000000000000000000000000000000600052603260045260246000fd5b906000526020600020906007020160060160029054906101000a900460ff165b610c3e576040517f08c379a0000000000000000000000000000000000000000000000000000000008152600401610c359061204d565b60405180910390fd5b806002600160003373ffffffffffffffffffffffffffffffffffffffff1673ffffffffffffffffffffffffffffffffffffffff1681526020019081526020016000205481548110610cb8577f4e487b7100000000000000000000000000000000000000000000000000000000600052603260045260246000fd5b90600052602060002090600702016004018190555050565b60008060009054906101000a900473ffffffffffffffffffffffffffffffffffffffff16905090565b600047905090565b600060149054906101000a900463ffffffff1681565b60008054906101000a900473ffffffffffffffffffffffffffffffffffffffff1673ffffffffffffffffffffffffffffffffffffffff163373ffffffffffffffffffffffffffffffffffffffff1614610da5576040517f08c379a0000000000000000000000000000000000000000000000000000000008152600401610d9c9061206d565b60405180910390fd5b6002600160008373ffffffffffffffffffffffffffffffffffffffff1673ffffffffffffffffffffffffffffffffffffffff1681526020019081526020016000205481548110610e1e577f4e487b7100000000000000000000000000000000000000000000000000000000600052603260045260246000fd5b906000526020600020906007020160060160029054906101000a900460ff16610e7c576040517f08c379a0000000000000000000000000000000000000000000000000000000008152600401610e739061202d565b60405180910390fd5b6002600160008373ffffffffffffffffffffffffffffffffffffffff1673ffffffffffffffffffffffffffffffffffffffff1681526020019081526020016000205481548110610ef5577f4e487b7100000000000000000000000000000000000000000000000000000000600052603260045260246000fd5b9060005260206000209060070201600080820160006101000a81549073ffffffffffffffffffffffffffffffffffffffff0219169055600182016000610f3b9190611980565b600282016000610f4b9190611980565b600382016000610f5b9190611980565b600482016000905560058201600090556006820160006101000a81549061ffff02191690556006820160026101000a81549060ff02191690555050600160008273ffffffffffffffffffffffffffffffffffffffff1673ffffffffffffffffffffffffffffffffffffffff168152602001908152602001600020600090556000601481819054906101000a900463ffffffff1680929190610ffb90612352565b91906101000a81548163ffffffff021916908363ffffffff1602179055505050565b6002600160008473ffffffffffffffffffffffffffffffffffffffff1673ffffffffffffffffffffffffffffffffffffffff1681526020019081526020016000205481548110611096577f4e487b7100000000000000000000000000000000000000000000000000000000600052603260045260246000fd5b906000526020600020906007020160060160029054906101000a900460ff166110f4576040517f08c379a00000000000000000000000000000000000000000000000000000000081526004016110eb9061202d565b60405180910390fd5b60008161ffff16141561113c576040517f08c379a000000000000000000000000000000000000000000000000000000000815260040161113390611fad565b60405180910390fd5b6002600160008473ffffffffffffffffffffffffffffffffffffffff1673ffffffffffffffffffffffffffffffffffffffff16815260200190815260200160002054815481106111b5577f4e487b7100000000000000000000000000000000000000000000000000000000600052603260045260246000fd5b906000526020600020906007020160060160009054906101000a900461ffff1661ffff168161ffff16111561121f576040517f08c379a000000000000000000000000000000000000000000000000000000000815260040161121690611f6d565b60405180910390fd5b8061ffff166002600160008573ffffffffffffffffffffffffffffffffffffffff1673ffffffffffffffffffffffffffffffffffffffff168152602001908152602001600020548154811061129d577f4e487b7100000000000000000000000000000000000000000000000000000000600052603260045260246000fd5b9060005260206000209060070201600401546112b991906121e8565b3410156112fb576040517f08c379a00000000000000000000000000000000000000000000000000000000081526004016112f290611fed565b60405180910390fd5b6000606460423461130c91906121e8565b61131691906121b7565b90508273ffffffffffffffffffffffffffffffffffffffff166108fc829081150290604051600060405180830381858888f1935050505015801561135e573d6000803e3d6000fd5b50816002600160008673ffffffffffffffffffffffffffffffffffffffff1673ffffffffffffffffffffffffffffffffffffffff16815260200190815260200160002054815481106113d9577f4e487b7100000000000000000000000000000000000000000000000000000000600052603260045260246000fd5b906000526020600020906007020160060160008282829054906101000a900461ffff166114069190612242565b92506101000a81548161ffff021916908361ffff1602179055508161ffff168373ffffffffffffffffffffffffffffffffffffffff163373ffffffffffffffffffffffffffffffffffffffff167fdb38fff34409f55fc66246bd547349528f9678af7ecd96e1341e361cb067fe9a60405160405180910390a4505050565b60606002805480602002602001604051908101604052809291908181526020016000905b828210156117365783829060005260206000209060070201604051806101000160405290816000820160009054906101000a900473ffffffffffffffffffffffffffffffffffffffff1673ffffffffffffffffffffffffffffffffffffffff1673ffffffffffffffffffffffffffffffffffffffff1681526020016001820180546115329061237c565b80601f016020809104026020016040519081016040528092919081815260200182805461155e9061237c565b80156115ab5780601f10611580576101008083540402835291602001916115ab565b820191906000526020600020905b81548152906001019060200180831161158e57829003601f168201915b505050505081526020016002820180546115c49061237c565b80601f01602080910402602001604051908101604052809291908181526020018280546115f09061237c565b801561163d5780601f106116125761010080835404028352916020019161163d565b820191906000526020600020905b81548152906001019060200180831161162057829003601f168201915b505050505081526020016003820180546116569061237c565b80601f01602080910402602001604051908101604052809291908181526020018280546116829061237c565b80156116cf5780601f106116a4576101008083540402835291602001916116cf565b820191906000526020600020905b8154815290600101906020018083116116b257829003601f168201915b5050505050815260200160048201548152602001600582015481526020016006820160009054906101000a900461ffff1661ffff1661ffff1681526020016006820160029054906101000a900460ff161515151581525050815260200190600101906114a8565b50505050905090565b60008054906101000a900473ffffffffffffffffffffffffffffffffffffffff1673ffffffffffffffffffffffffffffffffffffffff163373ffffffffffffffffffffffffffffffffffffffff16146117cd576040517f08c379a00000000000000000000000000000000000000000000000000000000081526004016117c49061206d565b60405180910390fd5b600073ffffffffffffffffffffffffffffffffffffffff168173ffffffffffffffffffffffffffffffffffffffff16141561183d576040517f08c379a000000000000000000000000000000000000000000000000000000000815260040161183490611fcd565b60405180910390fd5b8073ffffffffffffffffffffffffffffffffffffffff1660008054906101000a900473ffffffffffffffffffffffffffffffffffffffff1673ffffffffffffffffffffffffffffffffffffffff167f7699c77f2404f9b6bbd003861bb4af8ae70b205e19e73d7ec7fe4590db59a6b760405160405180910390a3806000806101000a81548173ffffffffffffffffffffffffffffffffffffffff021916908373ffffffffffffffffffffffffffffffffffffffff16021790555050565b8280546119069061237c565b90600052602060002090601f016020900481019282611928576000855561196f565b82601f1061194157805160ff191683800117855561196f565b8280016001018555821561196f579182015b8281111561196e578251825591602001919060010190611953565b5b50905061197c91906119c0565b5090565b50805461198c9061237c565b6000825580601f1061199e57506119bd565b601f0160209004906000526020600020908101906119bc91906119c0565b5b50565b5b808211156119d95760008160009055506001016119c1565b5090565b60006119f06119eb846120e8565b6120c3565b905082815260208101848484011115611a0857600080fd5b611a13848285612310565b509392505050565b600081359050611a2a81612754565b92915050565b600082601f830112611a4157600080fd5b8135611a518482602086016119dd565b91505092915050565b600081359050611a698161276b565b92915050565b600081359050611a7e81612782565b92915050565b600060208284031215611a9657600080fd5b6000611aa484828501611a1b565b91505092915050565b60008060008060008060c08789031215611ac657600080fd5b6000611ad489828a01611a1b565b965050602087013567ffffffffffffffff811115611af157600080fd5b611afd89828a01611a30565b955050604087013567ffffffffffffffff811115611b1a57600080fd5b611b2689828a01611a30565b945050606087013567ffffffffffffffff811115611b4357600080fd5b611b4f89828a01611a30565b9350506080611b6089828a01611a6f565b92505060a0611b7189828a01611a6f565b9150509295509295509295565b60008060408385031215611b9157600080fd5b6000611b9f85828601611a1b565b9250506020611bb085828601611a5a565b9150509250929050565b600060208284031215611bcc57600080fd5b6000611bda84828501611a5a565b91505092915050565b600060208284031215611bf557600080fd5b6000611c0384828501611a6f565b91505092915050565b6000611c188383611e36565b905092915050565b611c29816122aa565b82525050565b611c38816122aa565b82525050565b6000611c4982612129565b611c53818561214c565b935083602082028501611c6585612119565b8060005b85811015611ca15784840389528151611c828582611c0c565b9450611c8d8361213f565b925060208a01995050600181019050611c69565b50829750879550505050505092915050565b611cbc816122bc565b82525050565b6000611ccd82612134565b611cd7818561215d565b9350611ce781856020860161231f565b611cf0816124c8565b840191505092915050565b6000611d0860238361216e565b9150611d13826124d9565b604082019050919050565b6000611d2b601f8361216e565b9150611d3682612528565b602082019050919050565b6000611d4e60218361216e565b9150611d5982612551565b604082019050919050565b6000611d7160388361216e565b9150611d7c826125a0565b604082019050919050565b6000611d94601d8361216e565b9150611d9f826125ef565b602082019050919050565b6000611db7602d8361216e565b9150611dc282612618565b604082019050919050565b6000611dda602c8361216e565b9150611de582612667565b604082019050919050565b6000611dfd602d8361216e565b9150611e08826126b6565b604082019050919050565b6000611e2060378361216e565b9150611e2b82612705565b604082019050919050565b600061010083016000830151611e4f6000860182611c20565b5060208301518482036020860152611e678282611cc2565b91505060408301518482036040860152611e818282611cc2565b91505060608301518482036060860152611e9b8282611cc2565b9150506080830151611eb06080860182611f03565b5060a0830151611ec360a0860182611f03565b5060c0830151611ed660c0860182611ef4565b5060e0830151611ee960e0860182611cb3565b508091505092915050565b611efd816122c8565b82525050565b611f0c816122f6565b82525050565b611f1b816122f6565b82525050565b611f2a81612300565b82525050565b6000602082019050611f456000830184611c2f565b92915050565b60006020820190508181036000830152611f658184611c3e565b905092915050565b60006020820190508181036000830152611f8681611cfb565b9050919050565b60006020820190508181036000830152611fa681611d1e565b9050919050565b60006020820190508181036000830152611fc681611d41565b9050919050565b60006020820190508181036000830152611fe681611d64565b9050919050565b6000602082019050818103600083015261200681611d87565b9050919050565b6000602082019050818103600083015261202681611daa565b9050919050565b6000602082019050818103600083015261204681611dcd565b9050919050565b6000602082019050818103600083015261206681611df0565b9050919050565b6000602082019050818103600083015261208681611e13565b9050919050565b60006020820190506120a26000830184611f12565b92915050565b60006020820190506120bd6000830184611f21565b92915050565b60006120cd6120de565b90506120d982826123ae565b919050565b6000604051905090565b600067ffffffffffffffff82111561210357612102612499565b5b61210c826124c8565b9050602081019050919050565b6000819050602082019050919050565b600081519050919050565b600081519050919050565b6000602082019050919050565b600082825260208201905092915050565b600082825260208201905092915050565b600082825260208201905092915050565b600061218a826122c8565b9150612195836122c8565b92508261ffff038211156121ac576121ab61240c565b5b828201905092915050565b60006121c2826122f6565b91506121cd836122f6565b9250826121dd576121dc61243b565b5b828204905092915050565b60006121f3826122f6565b91506121fe836122f6565b9250817fffffffffffffffffffffffffffffffffffffffffffffffffffffffffffffffff04831182151516156122375761223661240c565b5b828202905092915050565b600061224d826122c8565b9150612258836122c8565b92508282101561226b5761226a61240c565b5b828203905092915050565b6000612281826122f6565b915061228c836122f6565b92508282101561229f5761229e61240c565b5b828203905092915050565b60006122b5826122d6565b9050919050565b60008115159050919050565b600061ffff82169050919050565b600073ffffffffffffffffffffffffffffffffffffffff82169050919050565b6000819050919050565b600063ffffffff82169050919050565b82818337600083830152505050565b60005b8381101561233d578082015181840152602081019050612322565b8381111561234c576000848401525b50505050565b600061235d82612300565b915060008214156123715761237061240c565b5b600182039050919050565b6000600282049050600182168061239457607f821691505b602082108114156123a8576123a761246a565b5b50919050565b6123b7826124c8565b810181811067ffffffffffffffff821117156123d6576123d5612499565b5b80604052505050565b60006123ea82612300565b915063ffffffff8214156124015761240061240c565b5b600182019050919050565b7f4e487b7100000000000000000000000000000000000000000000000000000000600052601160045260246000fd5b7f4e487b7100000000000000000000000000000000000000000000000000000000600052601260045260246000fd5b7f4e487b7100000000000000000000000000000000000000000000000000000000600052602260045260246000fd5b7f4e487b7100000000000000000000000000000000000000000000000000000000600052604160045260246000fd5b6000601f19601f8301169050919050565b7f46617265636861696e3a204e6f7420656e6f756768206261677320696e20737460008201527f6f636b0000000000000000000000000000000000000000000000000000000000602082015250565b7f46617265636861696e3a2043616e6e6f7420616464207a65726f206261677300600082015250565b7f46617265636861696e3a2043616e6e6f7420707572636861736520302062616760008201527f7300000000000000000000000000000000000000000000000000000000000000602082015250565b7f416363657373436f6e74726f6c3a2043616e6e6f74207472616e73666572206f60008201527f776e65727368697020746f207a65726f20616464726573730000000000000000602082015250565b7f46617265636861696e3a20496e73756666696369656e742066756e6473000000600082015250565b7f46617265636861696e3a204f7267616e69736174696f6e20697320616c72656160008201527f6479207265676973746572656400000000000000000000000000000000000000602082015250565b7f46617265636861696e3a204f7267616e69736174696f6e20616464726573732060008201527f6973206e6f742076616c69640000000000000000000000000000000000000000602082015250565b7f46617265636861696e3a2043616c6c6572206973206e6f7420612076616c696460008201527f206f7267616e69736174696f6e00000000000000000000000000000000000000602082015250565b7f416363657373436f6e74726f6c3a2046756e6374696f6e206f6e6c792063616c60008201527f6c61626c6520627920636f6e7472616374206f776e6572000000000000000000602082015250565b61275d816122aa565b811461276857600080fd5b50565b612774816122c8565b811461277f57600080fd5b50565b61278b816122f6565b811461279657600080fd5b5056fea2646970667358221220fd28d1af65cd55045e20f684780cd300f87095dfa8e14bb29d4d305153ec9ac564736f6c63430008010033",
  "immutableReferences": {},
  "source": "// SPDX-License-Identifier: MIT\npragma solidity ^0.8.0;\n\nimport \"./AccessControl.sol\";\n\n/// @title Farechain smart-contract.\ncontract Farechain is AccessControl {\n  /*** EVENTS ***/\n\n  /// @dev Emitted when a purchase is made. \n  event Purchased(\n    address indexed buyerAddress,\n    address indexed organisationAddress,\n    uint16 indexed quantity\n  );\n\n  /*** MODIFIERS ***/\n  \n  /// @dev Functions with modifier can only be called by a valid organisation.\n  modifier isOrganisation {\n    require((addressToIndex[msg.sender] != 0) &&\n      organisations[addressToIndex[msg.sender]].valid, \"Farechain: Caller is not a valid organisation\");\n    _;\n  }\n\n  /*** DATA STRUCTURES ***/\n\n  /// @dev Stores the data of an organisation.\n  struct Organisation {\n    address organisationAddress;\n    string organisationName;\n    string organisationPhone;\n    string organisationLocation;\n    uint256 bagPrice;\n    uint256 bagValue;\n    uint16 totalBags;\n    bool valid;\n  }\n  \n  /*** STORAGE ***/\n  \n  /// @dev Total number of organisations operating on the platform.\n  uint32 public totalOrganisations;\n\n  /// @dev Mapping from organisation's Ethereum address to corresponding\n  ///   index in organisations array. Do not use for validation as default\n  ///   zero value will clash with first item in array.\n  mapping(address => uint256) addressToIndex;\n\n  /// @dev Array of all organisations.\n  Organisation[] organisations;\n\n  /*** FUNCTIONS ***/\n\n  /// @dev Set zero item in array to an empty struct to prevent bugs\n  ///   caused due to mapping having default value of 0.\n  constructor () {\n    organisations.push(Organisation({\n      organisationAddress: address(0),\n      organisationName: \"\",\n      organisationPhone: \"\",\n      organisationLocation: \"\",\n      bagPrice: 0,\n      bagValue: 0,\n      totalBags: 0,\n      valid: false\n    }));\n  }\n\n  /// @dev Returns balance of contract in Wei.\n  function balance() public view returns (uint256) {\n    return address(this).balance;\n  }\n\n  /// @dev Withdraw specified funds from the contract. Only callable by owner.\n  /// @param amount Amount to be withdrawn in Wei\n  function withdraw(uint256 amount) public onlyOwner {\n    require(amount <= address(this).balance, \"Farechain: Insufficient funds\");\n\n    payable(msg.sender).transfer(amount);\n  }\n\n  /// @dev Add new organisation.\n  /// @param organisationAddress Ethereum address of organisation\n  /// @param organisationName Name of organisation\n  /// @param organisationPhone Phone number of organisation\n  /// @param organisationLocation Location of organisation\n  /// @param bagPrice Price of the bag in Wei.\n  /// @param bagValue Value of the bag in Wei.\n  function addOrganisation(\n    address organisationAddress,\n    string memory organisationName,\n    string memory organisationPhone,\n    string memory organisationLocation,\n    uint256 bagPrice,\n    uint256 bagValue\n    ) public onlyOwner {\n    require(!organisations[addressToIndex[organisationAddress]].valid, \"Farechain: Organisation is already registered\");\n\n    organisations.push(Organisation({\n      organisationAddress: organisationAddress,\n      organisationName: organisationName,\n      organisationPhone: organisationPhone,\n      organisationLocation: organisationLocation,\n      bagPrice: bagPrice,\n      bagValue: bagValue,\n      totalBags: 0,\n      valid: true\n    }));\n\n    addressToIndex[organisationAddress] = organisations.length - 1;\n    totalOrganisations++;\n  }\n\n  /// @dev Remove organisation.\n  /// @param organisationAddress Ethereum address of organisation\n  function removeOrganisation(address organisationAddress) public onlyOwner {\n    require(organisations[addressToIndex[organisationAddress]].valid, \"Farechain: Organisation address is not valid\");\n\n    delete organisations[addressToIndex[organisationAddress]];\n    delete addressToIndex[organisationAddress];\n    totalOrganisations--;\n  }\n\n  /// @dev Return array of all organisations. Will contain elements with\n  ///   empty structs after deletions occur.\n  function getOrganisations() public view returns (Organisation[] memory) {\n    return organisations;\n  }\n\n  /// @dev Change price of bag.\n  /// @param newPrice New price of bag in Wei\n  function updateBagPrice(uint256 newPrice) public isOrganisation {\n    organisations[addressToIndex[msg.sender]].bagPrice = newPrice;\n  }\n\n  /// @dev Change value of bag.\n  /// @param newValue New value of bag in Wei\n  function updateBagValue(uint256 newValue) public isOrganisation {\n    organisations[addressToIndex[msg.sender]].bagValue = newValue;\n  }\n\n  /// @dev Update organisation's stock of bags.\n  /// @param quantity Number of bags to be added\n  function addBags(uint16 quantity) public isOrganisation {\n    require(quantity != 0, \"Farechain: Cannot add zero bags\");\n\n    organisations[addressToIndex[msg.sender]].totalBags += quantity;\n  }\n\n  /// @dev Buy specified quantity of bags from organisation.\n  /// @param organisationAddress Ethereum address of organisation\n  /// @param quantity Number of bags to be purchased\n  function buy(address organisationAddress, uint16 quantity) public payable {\n    require(organisations[addressToIndex[organisationAddress]].valid, \"Farechain: Organisation address is not valid\");\n    require(quantity != 0, \"Farechain: Cannot purchase 0 bags\");\n    require(quantity <= organisations[addressToIndex[organisationAddress]].totalBags, \"Farechain: Not enough bags in stock\");\n    require(msg.value >= (organisations[addressToIndex[organisationAddress]].bagPrice * quantity), \"Farechain: Insufficient funds\");\n\n    uint256 sellerCut = (msg.value * 66) / 100;\n    payable(organisationAddress).transfer(sellerCut);\n\n    organisations[addressToIndex[organisationAddress]].totalBags -= quantity;\n    emit Purchased(msg.sender, organisationAddress, quantity);\n  }\n\n  /// @dev Fallback function.\n  receive() external payable {}\n}",
  "sourcePath": "/Users/hussain/farechain/blockchain/contracts/Farechain.sol",
  "compiler": {
    "name": "solc",
    "version": "0.8.1+commit.df193b15.Emscripten.clang"
  },
  "schemaVersion": "3.4.1",
  "updatedAt": "2021-08-03T11:20:01.309Z",
  "networkType": "ethereum",
  "devdoc": {
    "events": {
      "Purchased(address,address,uint16)": {
        "details": "Emitted when a purchase is made. "
      }
    },
    "kind": "dev",
    "methods": {
      "addBags(uint16)": {
        "details": "Update organisation's stock of bags.",
        "params": {
          "quantity": "Number of bags to be added"
        }
      },
      "addOrganisation(address,string,string,string,uint256,uint256)": {
        "details": "Add new organisation.",
        "params": {
          "bagPrice": "Price of the bag in Wei.",
          "bagValue": "Value of the bag in Wei.",
          "organisationAddress": "Ethereum address of organisation",
          "organisationLocation": "Location of organisation",
          "organisationName": "Name of organisation",
          "organisationPhone": "Phone number of organisation"
        }
      },
      "balance()": {
        "details": "Returns balance of contract in Wei."
      },
      "buy(address,uint16)": {
        "details": "Buy specified quantity of bags from organisation.",
        "params": {
          "organisationAddress": "Ethereum address of organisation",
          "quantity": "Number of bags to be purchased"
        }
      },
      "constructor": {
        "details": "Set zero item in array to an empty struct to prevent bugs   caused due to mapping having default value of 0."
      },
      "getOrganisations()": {
        "details": "Return array of all organisations. Will contain elements with   empty structs after deletions occur."
      },
      "owner()": {
        "details": "Returns address of current contract owner."
      },
      "removeOrganisation(address)": {
        "details": "Remove organisation.",
        "params": {
          "organisationAddress": "Ethereum address of organisation"
        }
      },
      "transferOwnership(address)": {
        "details": "Transfer ownership of contract.",
        "params": {
          "to": "Address of new owner. "
        }
      },
      "updateBagPrice(uint256)": {
        "details": "Change price of bag.",
        "params": {
          "newPrice": "New price of bag in Wei"
        }
      },
      "updateBagValue(uint256)": {
        "details": "Change value of bag.",
        "params": {
          "newValue": "New value of bag in Wei"
        }
      },
      "withdraw(uint256)": {
        "details": "Withdraw specified funds from the contract. Only callable by owner.",
        "params": {
          "amount": "Amount to be withdrawn in Wei"
        }
      }
    },
    "stateVariables": {
      "addressToIndex": {
        "details": "Mapping from organisation's Ethereum address to corresponding   index in organisations array. Do not use for validation as default   zero value will clash with first item in array."
      },
      "organisations": {
        "details": "Array of all organisations."
      },
      "totalOrganisations": {
        "details": "Total number of organisations operating on the platform."
      }
    },
    "title": "Farechain smart-contract.",
    "version": 1
  },
  "userdoc": {
    "kind": "user",
    "methods": {},
    "version": 1
  }
}